{
  "contractName": "ParadigmStake",
  "abi": [
    {
      "constant": true,
      "inputs": [],
      "name": "totalStaked",
      "outputs": [
        {
          "name": "",
          "type": "uint256"
        }
      ],
      "payable": false,
      "stateMutability": "view",
      "type": "function"
    },
    {
      "constant": true,
      "inputs": [],
      "name": "token",
      "outputs": [
        {
          "name": "",
          "type": "address"
        }
      ],
      "payable": false,
      "stateMutability": "view",
      "type": "function"
    },
    {
      "inputs": [
        {
          "name": "_treasury",
          "type": "address"
        }
      ],
      "payable": false,
      "stateMutability": "nonpayable",
      "type": "constructor"
    },
    {
      "anonymous": false,
      "inputs": [
        {
          "indexed": false,
          "name": "staker",
          "type": "address"
        },
        {
          "indexed": false,
          "name": "amount",
          "type": "uint256"
        }
      ],
      "name": "StakeMade",
      "type": "event"
    },
    {
      "anonymous": false,
      "inputs": [
        {
          "indexed": false,
          "name": "staker",
          "type": "address"
        },
        {
          "indexed": false,
          "name": "amount",
          "type": "uint256"
        }
      ],
      "name": "StakeRemoved",
      "type": "event"
    },
    {
      "constant": false,
      "inputs": [
        {
          "name": "amount",
          "type": "uint256"
        }
      ],
      "name": "stake",
      "outputs": [],
      "payable": false,
      "stateMutability": "nonpayable",
      "type": "function"
    },
    {
      "constant": false,
      "inputs": [
        {
          "name": "amount",
          "type": "uint256"
        }
      ],
      "name": "removeStake",
      "outputs": [],
      "payable": false,
      "stateMutability": "nonpayable",
      "type": "function"
    },
    {
      "constant": true,
      "inputs": [
        {
          "name": "a",
          "type": "address"
        }
      ],
      "name": "stakeFor",
      "outputs": [
        {
          "name": "",
          "type": "uint256"
        }
      ],
      "payable": false,
      "stateMutability": "view",
      "type": "function"
    },
    {
      "constant": false,
      "inputs": [
        {
          "name": "_token",
          "type": "address"
        },
        {
          "name": "_account",
          "type": "address"
        },
        {
          "name": "_change",
          "type": "int256"
        }
      ],
      "name": "balanceUpdate",
      "outputs": [],
      "payable": false,
      "stateMutability": "nonpayable",
      "type": "function"
    }
  ],
  "bytecode": "0x60806040526000805534801561001457600080fd5b506040516020806106238339810180604052602081101561003457600080fd5b505160028054600160a060020a031916600160a060020a038084169190911791829055604080517f88f036f2000000000000000000000000000000000000000000000000000000008152905192909116916388f036f291600480820192602092909190829003018186803b1580156100ab57600080fd5b505afa1580156100bf573d6000803e3d6000fd5b505050506040513d60208110156100d557600080fd5b505160018054600160a060020a031916600160a060020a039092169190911790555061051d806101066000396000f3fe6080604052600436106100775763ffffffff7c0100000000000000000000000000000000000000000000000000000000600035041663389f0846811461007c5780634bf69206146100c1578063817b1cd214610106578063939624ab1461011b578063a694fc3a14610145578063fc0c546a1461016f575b600080fd5b34801561008857600080fd5b506100bf6004803603606081101561009f57600080fd5b50600160a060020a038135811691602081013590911690604001356101a0565b005b3480156100cd57600080fd5b506100f4600480360360208110156100e457600080fd5b5035600160a060020a031661023f565b60408051918252519081900360200190f35b34801561011257600080fd5b506100f46102e6565b34801561012757600080fd5b506100bf6004803603602081101561013e57600080fd5b50356102ec565b34801561015157600080fd5b506100bf6004803603602081101561016857600080fd5b50356103d0565b34801561017b57600080fd5b506101846104b4565b60408051600160a060020a039092168252519081900360200190f35b60008112156101f55760408051600160a060020a03841681526000839003602082015281517fa018dcbc822f59fb0d0c3e7a86c8e4259b9676cdea9e5fc26279b9c4c5d86eef929181900390910190a161023a565b60408051600160a060020a03841681526020810183905281517f780e3621aba404e9552a77b2c33fee36c6ec3d77262598566cc32449aa6aa712929181900390910190a15b505050565b600254600154604080517f983bc49d000000000000000000000000000000000000000000000000000000008152600160a060020a03928316600482015284831660248201529051600093929092169163983bc49d91604480820192602092909190829003018186803b1580156102b457600080fd5b505afa1580156102c8573d6000803e3d6000fd5b505050506040513d60208110156102de57600080fd5b505192915050565b60005481565b600254600154604080517fd9caed12000000000000000000000000000000000000000000000000000000008152600160a060020a039283166004820152336024820152604481018590529051919092169163d9caed1291606480830192600092919082900301818387803b15801561036357600080fd5b505af1158015610377573d6000803e3d6000fd5b505060005461038f925090508263ffffffff6104c316565b600055604080513381526020810183905281517fa018dcbc822f59fb0d0c3e7a86c8e4259b9676cdea9e5fc26279b9c4c5d86eef929181900390910190a150565b600254600154604080517f8340f549000000000000000000000000000000000000000000000000000000008152600160a060020a0392831660048201523360248201526044810185905290519190921691638340f54991606480830192600092919082900301818387803b15801561044757600080fd5b505af115801561045b573d6000803e3d6000fd5b5050600054610473925090508263ffffffff6104d816565b600055604080513381526020810183905281517f780e3621aba404e9552a77b2c33fee36c6ec3d77262598566cc32449aa6aa712929181900390910190a150565b600154600160a060020a031681565b6000828211156104d257600080fd5b50900390565b6000828201838110156104ea57600080fd5b939250505056fea165627a7a72305820755b21a2dff1c6173a02c54835aa6aa0bae01615091fb76f95e2b3eecac171ed0029",
  "source": "pragma solidity ^0.5.0;\n\nimport \"openzeppelin-solidity/contracts/token/ERC20/IERC20.sol\";\nimport \"openzeppelin-solidity/contracts/math/SafeMath.sol\";\nimport \"./Treasury.sol\";\nimport \"./Observer.sol\";\n\ncontract ParadigmStake is Observer {\n    using SafeMath for uint;\n\n    uint public totalStaked = 0;\n    address public token;\n    Treasury private treasury;\n\n    event StakeMade(address staker, uint amount);\n    event StakeRemoved(address staker, uint amount);\n\n    constructor(address _treasury) public {\n        treasury = Treasury(_treasury);\n        token = address(treasury.penny());\n    }\n\n    function stake(uint amount) public {\n        treasury.deposit(token, msg.sender, amount);\n        totalStaked = totalStaked.add(amount);\n        emit StakeMade(msg.sender, amount);\n    }\n\n    function removeStake(uint amount) public {\n        treasury.withdraw(token, msg.sender, amount);\n        totalStaked = totalStaked.sub(amount);\n        emit StakeRemoved(msg.sender, amount);\n    }\n\n    function stakeFor(address a) public view returns (uint) {\n        return treasury.currentBalance(token, a);\n    }\n\n    function balanceUpdate(address _token, address _account, int _change) external {\n        if(_change < 0) {\n            emit StakeRemoved(_account, uint(_change * -1));\n        } else {\n            emit StakeMade(_account, uint(_change));\n        }\n    }\n}\n",
  "sourcePath": "/Users/Freydal/RubymineProjects/ParadigmProtocolContracts/contracts/ParadigmStake.sol",
  "compiler": {
    "name": "solc",
    "version": "0.5.0+commit.1d4f565a.Emscripten.clang"
  },
  "schemaVersion": "3.0.1",
  "updatedAt": "2019-01-08T17:46:53.281Z",
  "devdoc": {
    "methods": {}
  },
  "userdoc": {
    "methods": {}
  }
}